:020000040800F2
:100000000010002055130008E1120008E312000858
:1000100000000000000000000000000000000000E0
:10002000000000000000000000000000E5120008D1
:100030000000000000000000E7120008E9120008BC
:10004000A513000800000000A5130008A513000870
:10005000A5130008A5130008A5130008A5130008A0
:1000600000000000A5130008A5130008A513000850
:10007000A5130008A5130008A51300080000000040
:10008000A51300080000000000000000A5130008F0
:1000900000000000A5130008A5130008A513000820
:1000A00000000000A513000800000000A5130008D0
:1000B0000000000000000000000000000000000040
:1000C00010B5064C2378002B07D1054B002B02D02E
:1000D000044800E000BF0123237010BD040000208D
:1000E0000000000004140008044B10B5002B03D0DE
:1000F0000349044800E000BF10BDC04600000000F6
:10010000080000200414000802B4714649084900A0
:10011000095C49008E4402BC7047C0460022430877
:100120008B4274D303098B425FD3030A8B4244D3BF
:10013000030B8B4228D3030C8B420DD3FF22090201
:1001400012BA030C8B4202D31212090265D0030BC0
:100150008B4219D300E0090AC30B8B4201D3CB03B6
:10016000C01A5241830B8B4201D38B03C01A5241F8
:10017000430B8B4201D34B03C01A5241030B8B42FA
:1001800001D30B03C01A5241C30A8B4201D3CB02E5
:10019000C01A5241830A8B4201D38B02C01A5241CA
:1001A000430A8B4201D34B02C01A5241030A8B42CD
:1001B00001D30B02C01A5241CDD2C3098B4201D3E5
:1001C000CB01C01A524183098B4201D38B01C01A63
:1001D000524143098B4201D34B01C01A52410309DA
:1001E0008B4201D30B01C01A5241C3088B4201D389
:1001F000CB00C01A524183088B4201D38B00C01A36
:10020000524143088B4201D34B00C01A5241411A5C
:1002100000D20146524110467047FFE701B5002069
:1002200000F006F802BDC0460029F7D076E7704717
:100230007047C04610B5040000F0EAFBFA218900BF
:10024000FFF76CFF00F056F8012000222100404229
:1002500000F020F8002010BD1023064A10B51168E8
:1002600000200B431360FFF7E5FF00F0EDFF0020D7
:1002700010BDC04600200240024A136801331360DB
:100280007047C04620000020014B18687047C046E8
:100290002000002070B58901002814DA0F23C0B2B5
:1002A0000340083B114A9B089B009B180322104007
:1002B0009040FC321500114085408140DC69AC4320
:1002C0002143D96170BD032583082840A840FC352F
:1002D0002E00074A9B009B18C0228640294081407F
:1002E00092009C58B44321439950EBE700ED00E0A5
:1002F00000E100E0094A431E012093420DD8C021CD
:10030000074A08485360036A09061B021B0A0B438D
:10031000036200200723906013607047FFFFFF0017
:1003200010E000E000ED00E0054B1A68042802D15F
:1003300010431860704704218A431A60FAE7C046E8
:1003400010E000E0704710B5FFF7FCFF10BD0000A3
:10035000F0B50B6887B0029300230191029ADA404E
:1003600001D107B0F0BD01229A4003920399029A8D
:100370000A40009200D18CE0019A102152681600C8
:100380008E43022E0ED107251D40AD000139A94034
:10039000DC08A4000419276A8F4301990969A94060
:1003A0000F43276203245F00BC40E4430568013E1D
:1003B0002540AC4603251540BD4061460D43056010
:1003C000012E0FD801998668CD682640BD4035437F
:1003D00085604668039915098E4301210D409D40B3
:1003E00035434560C56801992C408D688021BD402A
:1003F00049052C43C4600A424BD00121264C0326F8
:10040000A5691E400D43A561A4699D080C40059493
:10041000059C0F242149AD00B6006D18B440902111
:10042000AF68C905A743002488420CD01C49013499
:10043000884208D01B490134884204D01A49033449
:10044000884200D1023CB44000993C430E00AC60AD
:10045000164CCD4327683E43D10301D43E002E40C5
:1004600026606768009E3E43910301D43E002E4003
:100470006660A768009E3E43D10201D43E002E4034
:10048000A660E668009F3743920201D42E403700F1
:10049000E760013362E7C0460010024000000140FF
:1004A0000004004800080048000C00480004014017
:1004B000002A01D0816170478162FCE7F0B50368D2
:1004C00085B00500DB072FD42B689B0700D581E0A2
:1004D0002B681B0700D5BCE02B685B0700D5DFE06D
:1004E0002B68DB061AD56A69B54C0423012A00D0B3
:1004F0004BE1616B02260B436363636B1A436263D8
:10050000FFF7C2FE0700636B334200D136E1F821EA
:10051000626BAB698A43DB0013436363296A00297A
:1005200000D059E1002013E00C21A54C62680A407C
:10053000042A06D063680B40082B0BD16368DB03E9
:1005400008D523689B03BFD56B68002BBCD1012065
:1005500005B0F0BD6B68012B13D1802322685B02CC
:1005600013432360FFF790FE80260700B60223683E
:100570003342A9D1FFF788FEC01B6428F7D90320B6
:10058000E6E7002B16D123688E4A802613402360AD
:1005900023688D4AB60213402360FFF775FE0700FB
:1005A0002368334200D18FE7FFF76EFEC01B64283B
:1005B000F6D9E4E7052B05D180232268DB0213433B
:1005C0002360CAE723687F4A1340236023687E4A7A
:1005D0001340C6E70C227A4C6368134206D0636866
:1005E0001340082B10D16368DB030DD423689B07ED
:1005F00002D5EB68012BAAD1F82122682B698A4326
:10060000DB001343236063E7EA680123002A0FD06D
:100610002268022613432360FFF736FE0700236893
:100620003342E9D1FFF730FEC01B0228F7D9A6E715
:10063000226802269A432260FFF726FE07002368FD
:10064000334200D144E7FFF71FFEC01B0228F6D952
:1006500095E7EA6901235A4C002A10D0626A022603
:1006600013436362FFF710FE0700636A334200D052
:1006700032E7FFF709FEC01B0228F6D97FE7626A5E
:1006800002269A436262FFF7FFFD0700636A334266
:1006900000D121E7FFF7F8FDC01B0228F6D96EE76D
:1006A00080220021464C5205E3690091134208D193
:1006B000E3691343E361E36913400393039B01235D
:1006C00000938027414E7F0033683B4206D0AB68E1
:1006D000012B13D1226A1343236230E033683B437A
:1006E0003360FFF7D1FD019033683B42EFD1FFF754
:1006F000CBFD019BC01A6428F6D940E70122002BEC
:1007000014D1236A022793432362236A033293435B
:100710002362FFF7B9FD0600236A3B4225D0FFF7AD
:10072000B3FD2B4B801B9842F6D928E7052B0BD144
:10073000216A013B0B432362236A1A432262FFF7BB
:10074000A3FD022706000DE0236A934304222362DF
:10075000236A9343C0E7FFF797FD1D4B801B984228
:1007600000D90CE7236A3B42F5D0009B012B00D057
:10077000B6E6E369174A1340E361B1E6FFF784FD8B
:10078000C01B022800D8BEE6F9E6053203D1626B31
:100790009A436263BBE6626B0226134301226363E2
:1007A000636B93436363FFF76FFD0700636B334233
:1007B00000D1B3E6FFF768FDC01B0228F6D9DEE6DC
:1007C00000100240FFFFFEFFFFFFFBFF0070004034
:1007D00088130000FFFFFFEF0C22264C0120636806
:1007E0001340082B00D1B3E62368234A134023604B
:1007F00002292FD1FFF748FD80260700B6042368A1
:10080000334221D10F22E36A9343EA6A1343E3623E
:10081000696AAB6A62680B43184980250A40134332
:100820006360802322685B0413432360FFF72CFD81
:100830000600AD0423682B4200D073E6FFF724FDC9
:10084000801B0228F6D99AE6FFF71EFDC01B02287E
:10085000D5D994E6FFF718FD80250600AD0423687E
:100860002B4200D15EE6FFF70FFD801B0228F6D970
:1008700085E6C04600100240FFFFFFFEFFFFC2FFFB
:1008800070B5144C88B010222100684600F0B0FD0D
:10089000210004AD10221031280000F0A9FD0C2227
:1008A0000D4E73681A40082A11D10F206A46990C20
:1008B0000140545CF26A0240A95CDB0305D507489D
:1008C000FFF72CFC604308B070BD0548FAE7034809
:1008D000F9E7C0461C1400080010024000127A001C
:1008E00000093D00F7B50122434C060023680F00C4
:1008F00013408B421CD33268930723D4D30729D4E7
:10090000012322681A40974267D333683B4C5B0748
:100910006AD4FFF7B5FF6368394A1B061B0FD35C27
:10092000D840384B18600020FFF784FC002008E016
:10093000236893430B432360236813409942DAD022
:100940000120FEBDF0202D494B688343B06803436E
:100950004B60D3E7294D72682B68012A1AD19B039B
:10096000EED503216B688B4313436B60FFF78CFC60
:1009700073680190012B15D10C226B681340042B76
:10098000BED0FFF781FC019BC01A1F4B9842F3D9E0
:100990000320D6E7022A02D19B01E2D4D0E79B07CD
:1009A000DFD4CDE7022B12D00C226B681342A7D004
:1009B000FFF76AFC019BC01A134B9842F4D9E7E792
:1009C000FFF762FC019BC01A0F4B9842E0D80C2243
:1009D0006B681340082BF3D192E722689A43226098
:1009E00022681A42ACD190E76368084A1340F26863
:1009F000134363608DE7C0460020024000100240B0
:100A00004E1400080000002088130000FFF8FFFFCC
:100A1000014B18687047C04600000020044B054A8F
:100A20005B685B055B0FD35C034A1068D840704776
:100A3000001002405E14000800000020F0B50368BA
:100A400085B00500DB0328D580220021374C5205F4
:100A5000E3690091134208D1E3691343E361E36959
:100A600013400393039B012300938027304E7F00A4
:100A700033683B4226D0C022236A920013402D4E99
:100A800032D1236A1E406B681E43009B2662012BF5
:100A900003D1E369284A1340E3612A68D30706D5E6
:100AA000032022490B6B8343A86803430B63002098
:100AB000930617D510211D4A136B8B43E9680B432E
:100AC00013630FE033683B433360FFF7DDFB0190B6
:100AD00033683B42CFD1FFF7D7FB019BC01A642894
:100AE000F6D9032005B0F0BD69680A409342C8D02A
:100AF0008023226A206A11005B0203432362236A77
:100B00000E483140034023622162D307B9D5FFF775
:100B1000BBFB07000222236A1342B2D1FFF7B4FBEA
:100B2000074BC01B9842F5D9DBE7C04600100240D6
:100B300000700040FFFCFFFFFFFFFFEFFFFFFEFF25
:100B40008813000070B504000568C26983680069F5
:100B500029680343606903433548134301400B434D
:100B60002B606B683349206A0B40E1680B436B6074
:100B7000A369A9680343304801400B430321AB60DC
:100B80002E4B1B6B0B402E49C85C80231B029A42E4
:100B90002CD1082827D8FFF7B7FA05260B261E26E2
:100BA00026262100FFF73AFF636840005B0802E059
:100BB00063685808234BC0186168FFF7AFFA83B227
:100BC00000200F22190091430A001B0721685B0FC8
:100BD0001343CB6070BDFFF753FEE5E76368580829
:100BE00080235B02E7E701200023EAE708281DD8FD
:100BF000FFF78AFA051C0A1C141C1C1C1700FFF7BF
:100C00000DFF61684B0802E061680F4B4808C0188F
:100C1000FFF784FA80B2E8600020DBE7FFF730FEE0
:100C2000EFE7802361681B024808F0E70120D1E765
:100C3000F369FFFFFFCFFFFFFFF4FFFF001002404B
:100C40004A1400080024F40000127A00436A30B508
:100C5000DA0706D50168284C4A682240846A224394
:100C60004A609A0706D50168244C4A682240C46A43
:100C700022434A605A0706D50168214C4A6822403F
:100C8000046B22434A601A0706D501681D4C4A6866
:100C90002240446B22434A60DA0606D501681A4CAA
:100CA0008A682240846B22438A609A0606D50168CE
:100CB000164C8A682240C46B22438A605A0610D5BB
:100CC0000168134D4A68046C2A4022434A6080221E
:100CD0005203944205D14A680E4C2240446C224390
:100CE0004A601B0606D502680B4953680B40816CAD
:100CF0000B43536030BDC046FFFFFDFFFFFFFEFF0B
:100D0000FFFFFBFFFF7FFFFFFFEFFFFFFFDFFFFFA7
:100D1000FFFFEFFFFFFF9FFFFFFFF7FF70B5041E10
:100D200001D1012070BD050069352B78DBB2002BA5
:100D300004D102006832137000F0AEFA24230121BE
:100D400022682B70136820008B431360FFF7FAFEB4
:100D50000128E6D0636A002B02D02000FFF776FF5F
:100D600023680B495A6800200A4008215A609A6893
:100D70008A439A60012219680A431A6022002023DC
:100D8000E0666A3268342B7013702070CAE7C04680
:100D9000FFF7FFFFF8B504000E0015001F002268E2
:100DA000D36933409B1B59424B41AB4201D00020D9
:100DB00018E0069B0133F3D0069B002B13D1236868
:100DC0000C491A6803200A401A609A68A331FF315F
:100DD0008A439A60220020236932137053700023E3
:100DE00068342370F8BDFFF74FFA069BC01B83429F
:100DF000D5D2E4E75FFEFFFFF0B51F0003006A33C2
:100E000016001A78040085B00D000220202A39D17E
:100E10000138002936D0002E34D08022A16852013A
:100E2000914204D12269002A01D105422AD122002F
:100E3000683211780220012924D00121117000228A
:100E4000E26622321A70FFF71FFA23008021A2689F
:100E500058331E805E800390490104338A4215D1C5
:100E60002269002A10D11E4A1A801E8822005A3296
:100E7000108880B2002810D1230020226A33683401
:100E80001A70207005B0F0BDFF22EDE7002AECD10A
:100E90002269002AF8D07F22E6E713882021013B4F
:100EA0009BB2138020000097039B0022FFF772FF84
:100EB000002813D1A26823681100802252019142B8
:100EC00007D12269002A04D19B8C33402B80023544
:100ED000CCE79B8C33402B700135C7E70320D1E76B
:100EE000FF01000080B582B000AFFFF7B5F900F058
:100EF000D3F800F071F900F039F9C046FA239B00ED
:100F0000F91D64480122FFF777FF031EF6D1FB1D90
:100F10001B78302B1BD19023DB05002210211800F9
:100F2000FFF7C6FA9023DB05002220211800FFF707
:100F3000BFFA9023DB05002240211800FFF7B8FA22
:100F40009023DB05002280211800FFF7B1FAFB1D7A
:100F50001B78312B1BD19023DB05002210211800B8
:100F6000FFF7A6FA9023DB05012220211800FFF7E6
:100F70009FFA9023DB05012240211800FFF798FA21
:100F80009023DB05002280211800FFF791FAFB1D5A
:100F90001B78322B1BD19023DB0501221021180076
:100FA000FFF786FA9023DB05002220211800FFF7C7
:100FB0007FFA9023DB05002240211800FFF778FA22
:100FC0009023DB05012280211800FFF771FAFB1D39
:100FD0001B78332B1BD19023DB0501221021180035
:100FE000FFF766FA9023DB05012220211800FFF7A6
:100FF0005FFA9023DB05012240211800FFF758FA21
:101000009023DB05002280211800FFF751FAFB1D19
:101010001B78342B1BD19023DB05002210211800F4
:10102000FFF746FA9023DB05012220211800FFF785
:101030003FFA9023DB05012240211800FFF738FA20
:101040009023DB05012280211800FFF731FAFB1DF8
:101050001B78352B00D050E79023DB0501221021AF
:101060001800FFF725FA9023DB0501222021180044
:10107000FFF71EFA9023DB05012240211800FFF73D
:1010800017FA9023DB05012280211800FFF710FAE0
:1010900033E7C0462400002080B594B000AF202381
:1010A000FB1802221A602023FB180122DA60202399
:1010B000FB1810221A612023FB1800221A62202339
:1010C000FB181800FFF7FAF9031E04D0264BA721DE
:1010D000180000F0B3F81023FB1807221A60102341
:1010E000FB1800225A601023FB1800229A6010237C
:1010F000FB180022DA601023FB1800211800FFF70C
:10110000F1FB031E04D0184BB321180000F096F831
:101110003B0001221A603B0000229A603B0018004D
:10112000FFF78CFC031E04D00F4BB921180000F010
:1011300085F8FFF76DFC0200FA2399001000FEF716
:10114000EDFF03001800FFF7D5F80420FFF7ECF8D7
:1011500001235B42002200211800FFF79BF8C046E4
:10116000BD4614B080BDC0463C14000880B500AF39
:10117000164B174A1A60154B962292015A60134B70
:1011800000229A60114B0022DA60104B00221A6193
:101190000E4B0C225A610D4B00229A610B4B002220
:1011A000DA610A4B00221A62084B00225A62074B8E
:1011B0001800FFF7B3FD031E04D0064BD62118001C
:1011C00000F03CF8C046BD4680BDC046240000206B
:1011D000003801403C14000880B586B000AF164BC3
:1011E000154A5269802189020A435A61124B5A6991
:1011F00080239B0213403B603B689023DB05002269
:10120000F0211800FFF754F93B1DF0221A603B1D36
:1012100001225A603B1D00229A603B1D0022DA60C9
:101220003A1D9023DB0511001800FFF791F8C04626
:10123000BD4606B080BDC0460010024080B582B0F9
:1012400000AF78603960FEE707B50120114B99695E
:101250000143996180219A69490502400092009AF0
:10126000DA6906380A43DA610022DB690B40019330
:101270001100019BFFF70EF80022022011004042EE
:10128000FFF708F80022012011004042FFF702F8A2
:1012900007BDC046001002407FB50F4B02689A425E
:1012A00018D180200D4AC001916901439161936971
:1012B00001A903400093009B0C2301930A3B029376
:1012C00000239020039303330493C005023B05934E
:1012D000FFF73EF807B000BD0038014000100240A3
:1012E0007047FEE77047704710B5FEF7C5FFFFF780
:1012F0002AF810BD0121114B11481A680A431A60DF
:101300005A6802405A601A680E4802401A601A6809
:101310000D4802401A605A680C4802400F205A607B
:10132000DA6A8243DA621A6B094802401A635A6B1E
:101330008A435A6300229A607047C04600100240F8
:101340000CB8FF08FFFFF6FEFFFFFBFFFFFFC0FF2B
:10135000ECFEFFFF0D4885460D480E490E4A00235E
:1013600002E0D458C4500433C4188C42F9D30B4A59
:101370000B4C002301E013600432A242FBD3FFF7C1
:10138000B9FF00F011F8FFF7ADFDFEE700100020F7
:101390000000002004000020701400080400002059
:1013A00094000020FEE7000070B500260C4D0D4CA7
:1013B000641BA410A64209D1002600F023F80A4DB0
:1013C0000A4C641BA410A64205D170BDB300EB58B3
:1013D00098470136EEE7B300EB5898470136F2E73D
:1013E0006814000868140008681400086C140008E9
:1013F000002310B59A4200D110BDCC5CC454013317
:10140000F8E70000F8B5C046F8BC08BC9E46704737
:0C141000F8B5C046F8BC08BC9E4670470A
:10141C0002030405060708090A0B0C0D0E0F101029
:10142C000102030405060708090A0B0C0D0E0F1028
:10143C002E2E2F5372632F6D61696E2E6300000484
:10144C00080200000000000000000102030406076F
:0C145C0008090000000001020304000069
:04146800E90000088F
:04146C00C1000008B3
:0414700000127A00EC
:040000050800135587
:00000001FF
